:0C0D53006E756D313A006E756D323A001D
:100B3F00120D03120D307BFF7A0D79537D017F016A
:100B4F00120C8D7BFF7A0D79597D017F02120C8D6E
:100B5F00E53FFB7A007522057D067F01120CCEE57D
:100B6F0040FB7A007522057D067F02120CCE80E0D5
:03000B00020AFEE8
:100AFE00C0E0C0F0C083C082C0D075D000C000C0BE
:100B0E0001C002C003C004C005C006C007758A1824
:100B1E00758CFC120800D007D006D005D004D00387
:100B2E00D002D001D000D0D0D082D083D0F0D0E08F
:010B3E003284
:100C5D00EF700920B1037F01227F0022BF0109201F
:100C6D00B0037F01227F0022BF020920B2037F0162
:100C7D00227F0022BF030820B3037F01227F0022C1
:10080000E4F50974162509F8E6D3940040011605AD
:1008100009E509B404ED0508E508C3941450030282
:100820000978E4F508B2A3F509740A2509F8E6FF8A
:10083000740E2509F8A607AF09120C5D740A250984
:10084000F8A607740A2509F8E6B4010B741A2509FD
:10085000F8E64401F68009741A2509F8E654FEF614
:10086000740A2509F8E6B40111740E2509F8E6703A
:1008700009741A2509F8E64402F6740A2509F8E60F
:100880007012740E2509F8E6B40109741A2509F8E6
:10089000E64404F674122509F8E6FF701E740A2572
:1008A00009F8E66401600302096C74162509F876FC
:1008B000D074122509F8760102096CEF64017030DA
:1008C000740A2509F8E6701174162509F876C874BB
:1008D000122509F8760202096C74162509F8E660FB
:1008E0000302096C7664741A2509F8E644208074C2
:1008F00074122509F8E6FF6402702E740A2509F8BF
:10090000E6B40112741A2509F8E64410F6741225AB
:1009100009F87603805674162509F8E6704E741AA5
:100920002509F8E64408F68020EFB4030A740A2586
:1009300009F8E67037801274122509F8E66404702D
:100940002B740A2509F8E6700974122509F8E4F6F3
:10095000801A74162509F8E670127664741A25094F
:10096000F8E64440F674122509F876040509E5090D
:08097000C3940450030208299E
:01097800225C
:100CEB00741A2FF8E6FE5D600CED64016004EDF400
:080CFB005EF67F01227F00225A
:100D03005389F0438901758A18758CFCC28DD28C86
:070D1300D2A9D2AFC2B92240
:030D840001270044
:040D7800E4F5A022DC
:040D7C0075A0FF223D
:040D800063A0FF224B
:100A9900E52B452A70028059E52B6401452A70250A
:100AA900052DE52D7002052CAE2CFF7C037DE81287
:100AB90009B88C2C8D2DC3E52D94F4E52C940150A7
:100AC90002802B802CE52B6402452A7027052DE531
:100AD9002D7002052CAE2CFF7C007D641209B88CA8
:100AE9002C8D2DC3E52D9432E52C94005003020D75
:050AF90078120D7C22C3
:050D73008E2A8F2B22E7
:060D4400C2A58F80D2A7BA
:080D4A007F027EEFDEFEDFFCFC
:010D5200227E
:0A0D5F00C2A6120D44C2A7020D4AFD
:100CB000CFCDCFCECCCE1209B87C007D0A1209B8B8
:040CC000ED2430FFF0
:0A0CC400D2A6120D44C2A7020D4A89
:100D1A00AE07BE0104ED148006BE0209ED243F446D
:060D2A0080FF120D5F22A4
:100D30007F38120D5F7F0C120D5F7F06120D5F7FF3
:040D400001020D5F40
:0A0D6900AC03120D1AAF04020CC413
:060C8D008B1E8A1F892066
:100C9300120D1AE4FDAB1EAA1FA9208D82758300D5
:0C0CA300120979FF6006120CC40D80E9F4
:010CAF002222
:0C0C2A007F0AEA24FFFDE434FFFC7E009A
:080C36008E238F248C258D26EE
:100C3E007F017E00E4FBEBC39526E5256480F87406
:0E0C4E008098500AAC23AD241209A60B80E852
:010C5C002275
:040CCE008A208B21CC
:100CD200120D1AAA22EAD39400400D120C2AAC205B
:080CE200AD21120CB01A80EDE7
:010CEA0022E7
:100B7F00120D1AC3EA64809480400B7F2B120CC4B1
:100B8F008A338B34800E7F2D120CC4C3E49BF53453
:100B9F00E49AF533AA32EAD39400400D120C2AAC32
:090BAF0033AD34120CB01A80EDD4
:010BB800221A
:040BB9008A378B38B4
:100BBD00120D1AAA39EAD3940040297F10120C2C79
:100BCD00AC37AD38CFCDCFCECCCE1209B8EF540F58
:100BDD00FEC3940AEE5004243080022437FF120C19
:040BED00C41A80D1D5
:010BF10022E1
:040BF2008A3C8B3D71
:100BF600120D1AAA3EEAD394004028EA24FFFDE427
:100C060034FFFC7F027E00120C36AC3CAD3DCFCDEE
:100C1600CFCECCCE1209B8EF54012430FF120CC44B
:030C26001A80D25F
:010C290022A8
:03000000020A0DE4
:0C0A0D00787FE4F6D8FD758140020A54A1
:10097900BB010CE58229F582E5833AF583E0225033
:1009890006E92582F8E622BBFE06E92582F8E2227D
:0D099900E58229F582E5833AF583E4932297
:1009A600EF8DF0A4A8F0CF8CF0A428CE8DF0A42E65
:0209B600FE221F
:1009B800BC000BBE0029EF8DF084FFADF022E4CC23
:1009C800F875F008EF2FFFEE33FEEC33FCEE9DECEC
:1009D800984005FCEE9DFE0FD5F0E9E4CEFD22ED32
:1009E800F8F5F0EE8420D21CFEADF075F008EF2F7C
:1009F800FFED33FD4007985006D5F0F222C398FD6D
:050A08000FD5F0EA2209
:100A1900020B3FE493A3F8E493A34003F68001F2A9
:100A290008DFF48029E493A3F85407240CC8C333DE
:100A3900C4540F4420C8834004F456800146F6DFAD
:100A4900E4800B0102040810204080900D84E47EAC
:100A5900019360BCA3FF543F30E509541FFEE493A2
:100A6900A360010ECF54C025E060A840B8E493A369
:100A7900FAE493A3F8E493A3C8C582C8CAC583CA94
:100A8900F0A3C8C582C8CAC583CADFE9DEE780BE4C
:010D8700006B
:00000001FF
